:042000005EEF13F08C
:08200800F76A180FF66E200EB6
:10201000F7220900F5501200280C01060C446973E0
:1020200074616E636961200A254C7520636D000040
:10203000EA6A160EE96EEF500EE00F0E016E006AAE
:10204000002EFED7012EFBD78F0E006E002EFED77E
:102050000000EF2EF2D712001DB002D08A9601D0F8
:102060008A8693961DB202D08A9801D08A88939866
:102070001DB402D08A9A01D08A8A939A1DB602D0E2
:102080008A9C01D08A8C939C000093948A84070ECA
:10209000006E002EFED700D093948A9412001E6A20
:1020A00093948A84000093861E9081B61E80938844
:1020B0001E9281B81E82938A1E9481BA1E84938CCC
:1020C0001E9681BC1E8693948A941EC001F0120055
:1020D00093928A820000E3DF01C01DF0E0DF01C0BF
:1020E0001CF01D38006EF00E001600501C10016E22
:1020F0007DEF10F093908A90EBD701C01CF001BEE9
:10210000FBD71A5203E093908A8002D093908A9072
:10211000000093928A92000093948A941B381C6E5C
:102120000F0E1C161CC01DF097DF1B500F0B1C6EF2
:102130001D6E92DF120093908A9093928A929394EC
:102140008A940F0E166E74DF0C6A0C50020808E3B6
:10215000030E1D6E81DF050E166E6ADF0C2AF5D7A1
:10216000020E1D6E79DF0C6A0C5003080EE3036A41
:102170000C50F2CF0DF0F29E47DF0DBEF28E0D6EC9
:102180001A6A1B6EB7DF0C2AEFD77AEF13F0010E35
:102190000D5E0CE3EA6A0D0EE96EEF5007E0020EE9
:1021A000006E002EFED700D0EF2EF9D712008E0E53
:1021B000006E0DC001F00CC002F0036A015209E18B
:1021C00002C001F0026A080E005E015202E1006ADC
:1021D00008D0D89001BE04D0023601360006F9D7E7
:1021E000019E12000C50D8B471D0006E1050D8B4BB
:1021F0006DD0002604E3810E002668E204D07F0E35
:10220000005E64E363E00DC014F01150141A0D8EEB
:10221000118E0F501302F4CF16F00E501202F4CFAD
:1022200003F0F3CF15F01302F3501626F4501522E5
:10223000000E03220F501202F3501626F4501522FE
:10224000000E026A032202220D501302F3501526DB
:10225000F4500322000E02220D501202F350032606
:10226000F4500222000E016A01220F501102F350B5
:102270001526F4500322000E022201220E501102F4
:10228000F3500326F4500222000E01220D501102D9
:10229000F3500226F4500122002A01BE05D0153663
:1022A0000336023601360006000E15AE0AD0032AA8
:1022B00002220122015005E1025003E1035001E135
:1022C000002A14BE018E14AE019E04D0006A016A79
:1022D000026A036A1200800ED8B2151A1A6A1B6AC3
:1022E00011C019F01550191A1050D8B4DCD0186E5E
:1022F000006E1450D8B4E0D0185ED8B481D03DE35D
:1023000015C01EF01E8E16C01DF017C01CF01B6AF3
:10231000D8901E321D321C321B32182EF8D719AE3F
:1023200003D01A80DDD01A9018901A88EA6A130E2A
:10233000E96EE9D01A9819BE0AD018A013D01E323F
:102340001D321C321B32002AD8B4C5D00BD01EBEA1
:102350000CD0D8901B361C361D361E360006D8B45D
:10236000BAD0F5D71A8C6BD01A9C11C019F011AEE7
:1023700002D01E8EA9D01E9EA7D014C018F014C083
:1023800000F01050185E11C01EF01E8E12C01DF01D
:1023900013C01CF01B6AD8901E321D321C321B3237
:1023A000182EF8D719AE03D01A829AD01A92189024
:1023B0001A8AEA6A170EE96EA6D01A9A19BE0AD0CE
:1023C00018A013D01E321D321C321B32002AD8B482
:1023D00082D00BD01EBE0CD0D8901B361C361D36BA
:1023E0001E360006D8B477D0F5D71A8E28D01A9E9C
:1023F00015C019F015AE02D01E8E66D01E9E64D098
:1024000015C01EF01E8E16C01DF017C01CF019AEB0
:1024100004D01E9E1A8464D01A941B6A1890EA6A2B
:10242000130EE96E70D019BE1CD011C019F018A09F
:1024300006D01E321D321C321B32002A4CE01BAE6D
:102440000BD01C2A09E11D2A07E11E2A05E11E32D4
:102450001D321C32002A3FE01ABC86D71ABEC7D7ED
:102460001CD0800E1E1A1EAE04D03AD015C019F032
:102470000AD011C019F01E5206E11D5204E11C528F
:1024800002E1006A21D01EBE08D0D8901B361C364F
:102490001D361E36002EF7D71ED019AE02D01E8E66
:1024A00013D01E9E11D014C000F015C01EF016C02F
:1024B0001DF017C01CF008D010C000F011C01EF0B5
:1024C00012C01DF013C01CF01EC001F01DC002F0B0
:1024D0001CC003F034D0006A016A026A036A2FD07C
:1024E0001B6A1C1E1D1E1E1E1B1E1B2A05E11C2A0C
:1024F00003E11D2A01E11E2A1AB015D71AB256D7D8
:102500001AB48AD7B3D7EF501C2605E31D2A03E17E
:102510001E2AD8B41880ED52EF501D2603E31E2A60
:10252000D8B41880ED52EF50EFBE01D0800A1E26BD
:10253000D8B018801AB8FED61ABA3FD774D7E2EFCF
:1025400013F08E0E006E0C50005E0DC002F00EC037
:1025500001F0028E005209E0D890025202E10152CD
:1025600004E002320132002EF7D70DAE05D0011E75
:10257000021E012AD8B4022AEBEF13F0172C01D067
:1025800003D0400E186E01D0186A010E165C182692
:1025900018508009196E1A6A1B6EACDDF0EF12F04C
:1025A00015500C0A05E0060A0BE0020A0FE013D0F2
:1025B0001A6A010E1B6E9EDD020E166E39DD10D0FA
:1025C000010E166E020E176ED9D70AD01A6A100EB7
:1025D0001B6E90DD05D0010E1A6E15C01BF08ADD52
:1025E00012000900F6CF0DF0F7CF0EF0F5CF15F081
:1025F000D7DF0DC0F6FF0EC0F7FF0C2EF2D712008A
:10260000EACF14F0E9CF13F00D38F0090F6E0F2662
:10261000E20F106E320F126E0D500F0B10261026A7
:102620001226E90F116E112611260C380F0B1126F8
:10263000122611361236121E12360C500F0B1226AD
:102640000F36070E0E6E0A0E11061226FDE3100657
:102650001126FDE30F061026FDE30E060F26FDE30F
:10266000EA6A0E0EE96E070E1314139CE926000E9B
:10267000EA22E950120803E1EA5201E1138CEF501B
:10268000006E08E113BC06D013B813D013B602D005
:10269000200E03D013861398300E0026EACF0DF0DB
:1026A000E9CF0CF000C015F07BDF0DC0EAFF0CC0D5
:1026B000E9FFEE5013ACDDD700EF14F0F86AD09EBE
:1026C000700ED36ED26A9B6AC150F00BC16E000EC1
:1026D0000F015B6F5F6F5C6F5D6F5E6F0101886BF9
:1026E0009A6A996A986A94908B90370ECD6ECC6AEC
:1026F000000121D594928B82640E0D6E48DD949278
:102700008B92020E0C6EAF0E0D6E41DD0C2EFBD7C0
:10271000948082A0FDD7CF6ACE6A948082B0FDD724
:10272000CE50066ECFCF07F007C00DF006C00CF0FC
:102730003EDD03C00FF002C00EF001C00DF000C07E
:102740000CF09A0E136E990E126E190E116E7E0E0B
:10275000106E48DD03C00BF002C00AF001C009F0A2
:1027600000C008F007C00DF006C00CF020DD03C06B
:102770000FF002C00EF001C00DF000C00CF0A60E6C
:10278000136E9B0E126E440E116E780E106E2ADDC3
:1027900003C00FF002C00EF001C00DF000C00CF03D
:1027A000D89203C013F002C012F001C011F000C0B3
:1027B00010F06D0E176EE70E166E0B0E156E7F0E77
:1027C000146E89D503C00FF002C00EF001C00DF0E9
:1027D00000C00CF0B6D602C005F001C004F0C80E6F
:1027E000166E26DC1C0EF66E200EF76E0C0E0C6EAE
:1027F000F8DE100EE96E05C00DF004C00CF000D735
:102800002B0EF66E200EF76E030E0C6EEADE72D7FC
:022810000300C3
:020000040030CA
:0E00000023C85E3C00D3A1000FC00FE00F40EC
:00000001FF
;PIC18F45K50
;CRC=C670  CREATED="09-ago.-19 20:54"
